{
  "contractName": "EventTickets",
  "abi": [
    {
      "constant": true,
      "inputs": [],
      "name": "owner",
      "outputs": [
        {
          "name": "",
          "type": "address"
        }
      ],
      "payable": false,
      "stateMutability": "view",
      "type": "function"
    },
    {
      "inputs": [
        {
          "name": "_description",
          "type": "string"
        },
        {
          "name": "_url",
          "type": "string"
        },
        {
          "name": "_ticketNumber",
          "type": "uint256"
        }
      ],
      "payable": false,
      "stateMutability": "nonpayable",
      "type": "constructor"
    },
    {
      "anonymous": false,
      "inputs": [
        {
          "indexed": false,
          "name": "purchaser",
          "type": "address"
        },
        {
          "indexed": false,
          "name": "numberOfTickets",
          "type": "uint256"
        }
      ],
      "name": "LogBuyTickets",
      "type": "event"
    },
    {
      "anonymous": false,
      "inputs": [
        {
          "indexed": false,
          "name": "accountRefunded",
          "type": "address"
        },
        {
          "indexed": false,
          "name": "numberOfTicketsRefunded",
          "type": "uint256"
        }
      ],
      "name": "LogGetRefund",
      "type": "event"
    },
    {
      "anonymous": false,
      "inputs": [
        {
          "indexed": false,
          "name": "contractOwner",
          "type": "address"
        },
        {
          "indexed": false,
          "name": "balanceTransfered",
          "type": "uint256"
        }
      ],
      "name": "LogEndSale",
      "type": "event"
    },
    {
      "constant": true,
      "inputs": [],
      "name": "readEvent",
      "outputs": [
        {
          "name": "description",
          "type": "string"
        },
        {
          "name": "website",
          "type": "string"
        },
        {
          "name": "totalTickets",
          "type": "uint256"
        },
        {
          "name": "sales",
          "type": "uint256"
        },
        {
          "name": "isOpen",
          "type": "bool"
        }
      ],
      "payable": false,
      "stateMutability": "view",
      "type": "function"
    },
    {
      "constant": true,
      "inputs": [
        {
          "name": "_buyer",
          "type": "address"
        }
      ],
      "name": "getBuyerTicketCount",
      "outputs": [
        {
          "name": "",
          "type": "uint256"
        }
      ],
      "payable": false,
      "stateMutability": "view",
      "type": "function"
    },
    {
      "constant": false,
      "inputs": [
        {
          "name": "_numberOfTickets",
          "type": "uint256"
        }
      ],
      "name": "buyTickets",
      "outputs": [
        {
          "name": "",
          "type": "uint256"
        }
      ],
      "payable": true,
      "stateMutability": "payable",
      "type": "function"
    },
    {
      "constant": false,
      "inputs": [],
      "name": "getRefund",
      "outputs": [
        {
          "name": "",
          "type": "uint256"
        }
      ],
      "payable": true,
      "stateMutability": "payable",
      "type": "function"
    },
    {
      "constant": false,
      "inputs": [],
      "name": "endSale",
      "outputs": [],
      "payable": false,
      "stateMutability": "nonpayable",
      "type": "function"
    }
  ],
  "bytecode": "0x608060405260646001553480156200001657600080fd5b5060405162000e7c38038062000e7c833981018060405260608110156200003c57600080fd5b8101908080516401000000008111156200005557600080fd5b828101905060208101848111156200006c57600080fd5b81518560018202830111640100000000821117156200008a57600080fd5b50509291906020018051640100000000811115620000a757600080fd5b82810190506020810184811115620000be57600080fd5b8151856001820283011164010000000082111715620000dc57600080fd5b505092919060200180519060200190929190505050336000806101000a81548173ffffffffffffffffffffffffffffffffffffffff021916908373ffffffffffffffffffffffffffffffffffffffff1602179055506040518060a001604052808481526020018381526020018281526020016000815260200160011515815250600260008201518160000190805190602001906200017c929190620001dc565b5060208201518160010190805190602001906200019b929190620001dc565b50604082015181600201556060820151816003015560808201518160050160006101000a81548160ff0219169083151502179055509050505050506200028b565b828054600181600116156101000203166002900490600052602060002090601f016020900481019282601f106200021f57805160ff191683800117855562000250565b8280016001018555821562000250579182015b828111156200024f57825182559160200191906001019062000232565b5b5090506200025f919062000263565b5090565b6200028891905b80821115620002845760008160009055506001016200026a565b5090565b90565b610be1806200029b6000396000f3fe6080604052600436106100555760003560e01c806305aea97c1461005a5780632f3666371461016f578063380d831b146101b15780638da5cb5b146101c8578063b2d5ae441461021f578063edfb91671461023d575b600080fd5b34801561006657600080fd5b5061006f6102a2565b60405180806020018060200186815260200185815260200184151515158152602001838103835288818151815260200191508051906020019080838360005b838110156100c95780820151818401526020810190506100ae565b50505050905090810190601f1680156100f65780820380516001836020036101000a031916815260200191505b50838103825287818151815260200191508051906020019080838360005b8381101561012f578082015181840152602081019050610114565b50505050905090810190601f16801561015c5780820380516001836020036101000a031916815260200191505b5097505050505050505060405180910390f35b61019b6004803603602081101561018557600080fd5b810190808035906020019092919050505061041b565b6040518082815260200191505060405180910390f35b3480156101bd57600080fd5b506101c66106cf565b005b3480156101d457600080fd5b506101dd6108b3565b604051808273ffffffffffffffffffffffffffffffffffffffff1673ffffffffffffffffffffffffffffffffffffffff16815260200191505060405180910390f35b6102276108d8565b6040518082815260200191505060405180910390f35b34801561024957600080fd5b5061028c6004803603602081101561026057600080fd5b81019080803573ffffffffffffffffffffffffffffffffffffffff169060200190929190505050610aad565b6040518082815260200191505060405180910390f35b6060806000806000600260000160026001016002800154600260030154600260050160009054906101000a900460ff16848054600181600116156101000203166002900480601f0160208091040260200160405190810160405280929190818152602001828054600181600116156101000203166002900480156103675780601f1061033c57610100808354040283529160200191610367565b820191906000526020600020905b81548152906001019060200180831161034a57829003601f168201915b50505050509450838054600181600116156101000203166002900480601f0160208091040260200160405190810160405280929190818152602001828054600181600116156101000203166002900480156104035780601f106103d857610100808354040283529160200191610403565b820191906000526020600020905b8154815290600101906020018083116103e657829003601f168201915b50505050509350945094509450945094509091929394565b6000600260050160009054906101000a900460ff166104a2576040517f08c379a000000000000000000000000000000000000000000000000000000000815260040180806020018281038252600f8152602001807f6576656e7420697320636c6f736564000000000000000000000000000000000081525060200191505060405180910390fd5b600154820234101561051c576040517f08c379a00000000000000000000000000000000000000000000000000000000081526004018080602001828103825260208152602001807f76616c7565206e6f7420656e6f75676820666f72207472616e73616374696f6e81525060200191505060405180910390fd5b81600260030154600280015403101561059d576040517f08c379a00000000000000000000000000000000000000000000000000000000081526004018080602001828103825260088152602001807f736f6c64206f757400000000000000000000000000000000000000000000000081525060200191505060405180910390fd5b81600260040160003373ffffffffffffffffffffffffffffffffffffffff1673ffffffffffffffffffffffffffffffffffffffff168152602001908152602001600020600082825401925050819055508160028001600082825403925050819055506000826001540234039050600081111561065b573373ffffffffffffffffffffffffffffffffffffffff166108fc829081150290604051600060405180830381858888f19350505050158015610659573d6000803e3d6000fd5b505b7f72240c1be87ee789414e12fc30844d39a55d1eaf3b8741489fe381ad2b6cdd473384604051808373ffffffffffffffffffffffffffffffffffffffff1673ffffffffffffffffffffffffffffffffffffffff1681526020018281526020019250505060405180910390a182915050919050565b6000809054906101000a900473ffffffffffffffffffffffffffffffffffffffff1673ffffffffffffffffffffffffffffffffffffffff163373ffffffffffffffffffffffffffffffffffffffff1614610791576040517f08c379a00000000000000000000000000000000000000000000000000000000081526004018080602001828103825260138152602001807f73656e646572206973206e6f74206f776e65720000000000000000000000000081525060200191505060405180910390fd5b6000600260050160006101000a81548160ff021916908315150217905550600060028001546001540190506000809054906101000a900473ffffffffffffffffffffffffffffffffffffffff1673ffffffffffffffffffffffffffffffffffffffff166108fc829081150290604051600060405180830381858888f19350505050158015610823573d6000803e3d6000fd5b507f21e7b2f8578199ba3904a63b7cd799784c8cadde57dde563a7de95ef792e256c6000809054906101000a900473ffffffffffffffffffffffffffffffffffffffff1682604051808373ffffffffffffffffffffffffffffffffffffffff1673ffffffffffffffffffffffffffffffffffffffff1681526020018281526020019250505060405180910390a150565b6000809054906101000a900473ffffffffffffffffffffffffffffffffffffffff1681565b600080600260040160003373ffffffffffffffffffffffffffffffffffffffff1673ffffffffffffffffffffffffffffffffffffffff1681526020019081526020016000205411610991576040517f08c379a00000000000000000000000000000000000000000000000000000000081526004018080602001828103825260188152602001807f72657175657374657220686173206e6f207469636b657473000000000000000081525060200191505060405180910390fd5b6000600260040160003373ffffffffffffffffffffffffffffffffffffffff1673ffffffffffffffffffffffffffffffffffffffff16815260200190815260200160002054905060006002800154905081810160028001819055506000826001540290503373ffffffffffffffffffffffffffffffffffffffff166108fc829081150290604051600060405180830381858888f19350505050158015610a3b573d6000803e3d6000fd5b507f492e1d962a477f77890c7cfdb563d7ddc58fee6505741794fa5700ada3c160413384604051808373ffffffffffffffffffffffffffffffffffffffff1673ffffffffffffffffffffffffffffffffffffffff1681526020018281526020019250505060405180910390a150505090565b600080600260040160008473ffffffffffffffffffffffffffffffffffffffff1673ffffffffffffffffffffffffffffffffffffffff1681526020019081526020016000205414610b4257600260040160008373ffffffffffffffffffffffffffffffffffffffff1673ffffffffffffffffffffffffffffffffffffffff168152602001908152602001600020549050610bb0565b6040517f08c379a00000000000000000000000000000000000000000000000000000000081526004018080602001828103825260108152602001807f6861736e7420626f75676874207965740000000000000000000000000000000081525060200191505060405180910390fd5b91905056fea165627a7a7230582002b2341d5517699be978d45a251b764de447e6606c976db8a9f7228ed4380ca50029",
  "source": "pragma solidity ^0.5.0;\n\n    /*\n        The EventTickets contract keeps track of the details and ticket sales of one event.\n     */\n\ncontract EventTickets {\n\n    /*\n        Create a public state variable called owner.\n        Use the appropriate keyword to create an associated getter function.\n        Use the appropriate keyword to allow ether transfers.\n     */\n    address payable public owner;\n\n    uint TICKET_PRICE = 100 wei;\n\n    /*\n        Create a struct called \"Event\".\n        The struct has 6 fields: description, website (URL), totalTickets, sales, buyers, and isOpen.\n        Choose the appropriate variable type for each field.\n        The \"buyers\" field should keep track of addresses and how many tickets each buyer purchases.\n    */\n    struct Event {\n        string description;\n        string website;\n        uint totalTickets;\n        uint sales;\n        mapping (address => uint) buyers;\n        bool isOpen;\n    }\n\n    Event myEvent;\n\n    /*\n        Define 3 logging events.\n        LogBuyTickets should provide information about the purchaser and the number of tickets purchased.\n        LogGetRefund should provide information about the refund requester and the number of tickets refunded.\n        LogEndSale should provide infromation about the contract owner and the balance transferred to them.\n    */\n    event LogBuyTickets(address purchaser, uint numberOfTickets);\n    event LogGetRefund(address accountRefunded, uint numberOfTicketsRefunded);\n    event LogEndSale(address contractOwner, uint balanceTransfered);\n\n    /*\n        Create a modifier that throws an error if the msg.sender is not the owner.\n    */\n    modifier isOwner() {\n        require(msg.sender == owner, 'sender is not owner');\n        _;\n    }\n\n    /*\n        Define a constructor.\n        The constructor takes 3 arguments, the description, the URL and the number of tickets for sale.\n        Set the owner to the creator of the contract.\n        Set the appropriate myEvent details.\n    */\n    constructor(string memory _description, string memory _url, uint _ticketNumber) public {\n        owner = msg.sender;\n        myEvent = Event({description: _description, website: _url, totalTickets: _ticketNumber, isOpen: true, sales: 0});\n    }\n\n    /*\n        Define a function called readEvent() that returns the event details.\n        This function does not modify state, add the appropriate keyword.\n        The returned details should be called description, website, uint totalTickets, uint sales, bool isOpen in that order.\n    */\n    function readEvent()\n        public view\n        returns(string memory description, string memory website, uint totalTickets, uint sales, bool isOpen)\n    {\n        return (\n            myEvent.description,\n            myEvent.website,\n            myEvent.totalTickets,\n            myEvent.sales,\n            myEvent.isOpen\n        );\n    }\n\n    /*\n        Define a function called getBuyerTicketCount().\n        This function takes 1 argument, an address and\n        returns the number of tickets that address has purchased.\n    */\n    function getBuyerTicketCount(address _buyer) public view returns(uint) {\n        if (myEvent.buyers[_buyer] != 0) {\n            return myEvent.buyers[_buyer];\n        } else {\n            revert('hasnt bought yet');\n        }\n    }\n\n    /*\n        Define a function called buyTickets().\n        This function allows someone to purchase tickets for the event.\n        This function takes one argument, the number of tickets to be purchased.\n        This function can accept Ether.\n        Be sure to check:\n            - That the event isOpen\n            - That the transaction value is sufficient for the number of tickets purchased\n            - That there are enough tickets in stock\n        Then:\n            - add the appropriate number of tickets to the purchasers count\n            - account for the purchase in the remaining number of available tickets\n            - refund any surplus value sent with the transaction\n            - emit the appropriate event\n    */\n    // modifier eventIsOpened() {\n    //     require(myEvent.isOpen, 'event is closed');\n    //     _;\n    // }\n\n    // modifier eventIsNotSoldOut() {\n    //     require(myEvent.totalTickets > 0, 'sold out');\n    //     _;\n    // }\n\n    // modifier enoughValue(uint _numberOfTickets) {\n    //     require(msg.value >= (TICKET_PRICE * _numberOfTickets), 'value not enough for transaction');\n    //     _;\n    // }\n\n    function buyTickets(uint _numberOfTickets) public payable returns(uint) {\n        require(myEvent.isOpen, 'event is closed');\n        require(msg.value >= _numberOfTickets * TICKET_PRICE, 'value not enough for transaction');\n        require(myEvent.totalTickets - myEvent.sales >= _numberOfTickets, 'sold out');\n\n        myEvent.buyers[msg.sender] += _numberOfTickets;\n        myEvent.totalTickets -= _numberOfTickets;\n\n        uint _amountToRefund = msg.value - (TICKET_PRICE * _numberOfTickets);\n        if (_amountToRefund > 0) {\n            address(msg.sender).transfer(_amountToRefund);\n        }\n\n        emit LogBuyTickets(msg.sender, _numberOfTickets);\n\n        return _numberOfTickets;\n    }\n\n    /*\n        Define a function called getRefund().\n        This function allows someone to get a refund for tickets for the account they purchased from.\n        TODO:\n            - Check that the requester has purchased tickets.\n            - Make sure the refunded tickets go back into the pool of avialable tickets.\n            - Transfer the appropriate amount to the refund requester.\n            - Emit the appropriate event.\n    */\n    function getRefund() public payable returns(uint) {\n        require(myEvent.buyers[msg.sender] > 0, 'requester has no tickets');\n\n        uint _amountToRefund = myEvent.buyers[msg.sender];\n\n        uint _initialTotalTickets = myEvent.totalTickets;\n        myEvent.totalTickets = _initialTotalTickets + _amountToRefund;\n\n        uint _valueToRefund = TICKET_PRICE * _amountToRefund;\n        msg.sender.transfer(_valueToRefund);\n\n        emit LogGetRefund(msg.sender, _amountToRefund);\n    }\n\n    /*\n        Define a function called endSale().\n        This function will close the ticket sales.\n        This function can only be called by the contract owner.\n        TODO:\n            - close the event\n            - transfer the contract balance to the owner\n            - emit the appropriate event\n    */\n    function endSale() public isOwner {\n        myEvent.isOpen = false;\n        uint balanceTransfered = TICKET_PRICE + myEvent.totalTickets;\n        owner.transfer(balanceTransfered);\n        emit LogEndSale(owner, balanceTransfered);\n    }\n}\n",
  "sourcePath": "/Users/fran/ws/block/exercises/event-tickets-exercise-farantesrodrigues/contracts/EventTickets.sol",
  "compiler": {
    "name": "solc",
    "version": "0.5.8+commit.23d335f2.Emscripten.clang"
  },
  "schemaVersion": "3.0.11",
  "updatedAt": "2019-07-29T16:37:58.727Z",
  "devdoc": {
    "methods": {}
  },
  "userdoc": {
    "methods": {}
  }
}