{
  "contractName": "EventTicketsV2",
  "abi": [
    {
      "constant": true,
      "inputs": [],
      "name": "owner",
      "outputs": [
        {
          "name": "",
          "type": "address"
        }
      ],
      "payable": false,
      "stateMutability": "view",
      "type": "function"
    },
    {
      "inputs": [],
      "payable": false,
      "stateMutability": "nonpayable",
      "type": "constructor"
    },
    {
      "anonymous": false,
      "inputs": [
        {
          "indexed": false,
          "name": "desc",
          "type": "string"
        },
        {
          "indexed": false,
          "name": "url",
          "type": "string"
        },
        {
          "indexed": false,
          "name": "ticketsAvailable",
          "type": "uint256"
        },
        {
          "indexed": false,
          "name": "eventId",
          "type": "uint256"
        }
      ],
      "name": "LogEventAdded",
      "type": "event"
    },
    {
      "anonymous": false,
      "inputs": [
        {
          "indexed": false,
          "name": "buyer",
          "type": "address"
        },
        {
          "indexed": false,
          "name": "eventId",
          "type": "uint256"
        },
        {
          "indexed": false,
          "name": "numTickets",
          "type": "uint256"
        }
      ],
      "name": "LogBuyTickets",
      "type": "event"
    },
    {
      "anonymous": false,
      "inputs": [
        {
          "indexed": false,
          "name": "accountRefunded",
          "type": "address"
        },
        {
          "indexed": false,
          "name": "eventId",
          "type": "uint256"
        },
        {
          "indexed": false,
          "name": "numTickets",
          "type": "uint256"
        }
      ],
      "name": "LogGetRefund",
      "type": "event"
    },
    {
      "anonymous": false,
      "inputs": [
        {
          "indexed": false,
          "name": "owner",
          "type": "address"
        },
        {
          "indexed": false,
          "name": "balance",
          "type": "uint256"
        },
        {
          "indexed": false,
          "name": "eventId",
          "type": "uint256"
        }
      ],
      "name": "LogEndSale",
      "type": "event"
    },
    {
      "anonymous": false,
      "inputs": [
        {
          "indexed": false,
          "name": "description",
          "type": "string"
        },
        {
          "indexed": false,
          "name": "website",
          "type": "string"
        },
        {
          "indexed": false,
          "name": "totalTickets",
          "type": "uint256"
        },
        {
          "indexed": false,
          "name": "sales",
          "type": "uint256"
        },
        {
          "indexed": false,
          "name": "isOpen",
          "type": "bool"
        }
      ],
      "name": "LogReadEvent",
      "type": "event"
    },
    {
      "constant": false,
      "inputs": [
        {
          "name": "_description",
          "type": "string"
        },
        {
          "name": "_url",
          "type": "string"
        },
        {
          "name": "_ticketNumber",
          "type": "uint256"
        }
      ],
      "name": "addEvent",
      "outputs": [
        {
          "name": "",
          "type": "uint256"
        }
      ],
      "payable": false,
      "stateMutability": "nonpayable",
      "type": "function"
    },
    {
      "constant": true,
      "inputs": [
        {
          "name": "_eventId",
          "type": "uint256"
        }
      ],
      "name": "readEvent",
      "outputs": [
        {
          "name": "description",
          "type": "string"
        },
        {
          "name": "website",
          "type": "string"
        },
        {
          "name": "totalTickets",
          "type": "uint256"
        },
        {
          "name": "sales",
          "type": "uint256"
        },
        {
          "name": "isOpen",
          "type": "bool"
        }
      ],
      "payable": false,
      "stateMutability": "view",
      "type": "function"
    },
    {
      "constant": false,
      "inputs": [
        {
          "name": "_eventId",
          "type": "uint256"
        },
        {
          "name": "_numberOfTickets",
          "type": "uint256"
        }
      ],
      "name": "buyTickets",
      "outputs": [
        {
          "name": "",
          "type": "uint256"
        }
      ],
      "payable": true,
      "stateMutability": "payable",
      "type": "function"
    },
    {
      "constant": false,
      "inputs": [
        {
          "name": "_eventId",
          "type": "uint256"
        }
      ],
      "name": "getRefund",
      "outputs": [],
      "payable": true,
      "stateMutability": "payable",
      "type": "function"
    },
    {
      "constant": true,
      "inputs": [
        {
          "name": "_eventId",
          "type": "uint256"
        }
      ],
      "name": "getBuyerNumberTickets",
      "outputs": [
        {
          "name": "",
          "type": "uint256"
        }
      ],
      "payable": false,
      "stateMutability": "view",
      "type": "function"
    },
    {
      "constant": false,
      "inputs": [
        {
          "name": "_eventId",
          "type": "uint256"
        }
      ],
      "name": "endSale",
      "outputs": [],
      "payable": true,
      "stateMutability": "payable",
      "type": "function"
    }
  ],
  "bytecode": "0x6080604052606460015534801561001557600080fd5b50336000806101000a81548173ffffffffffffffffffffffffffffffffffffffff021916908373ffffffffffffffffffffffffffffffffffffffff16021790555060006002819055506111e38061006d6000396000f3fe6080604052600436106100705760003560e01c80638627df461161004e5780638627df461461026f5780638da5cb5b146102bb578063d2f0be9914610312578063e1ba30a91461034057610070565b806304d1a846146100755780633ddedd38146100a35780634da19f20146100f2575b600080fd5b6100a16004803603602081101561008b57600080fd5b8101908080359060200190929190505050610479565b005b3480156100af57600080fd5b506100dc600480360360208110156100c657600080fd5b81019080803590602001909291905050506105c7565b6040518082815260200191505060405180910390f35b3480156100fe57600080fd5b506102596004803603606081101561011557600080fd5b810190808035906020019064010000000081111561013257600080fd5b82018360208201111561014457600080fd5b8035906020019184600183028401116401000000008311171561016657600080fd5b91908080601f016020809104026020016040519081016040528093929190818152602001838380828437600081840152601f19601f820116905080830192505050505050509192919290803590602001906401000000008111156101c957600080fd5b8201836020820111156101db57600080fd5b803590602001918460018302840111640100000000831117156101fd57600080fd5b91908080601f016020809104026020016040519081016040528093929190818152602001838380828437600081840152601f19601f820116905080830192505050505050509192919290803590602001909291905050506106f2565b6040518082815260200191505060405180910390f35b6102a56004803603604081101561028557600080fd5b8101908080359060200190929190803590602001909291905050506109ae565b6040518082815260200191505060405180910390f35b3480156102c757600080fd5b506102d0610cc9565b604051808273ffffffffffffffffffffffffffffffffffffffff1673ffffffffffffffffffffffffffffffffffffffff16815260200191505060405180910390f35b61033e6004803603602081101561032857600080fd5b8101908080359060200190929190505050610cee565b005b34801561034c57600080fd5b506103796004803603602081101561036357600080fd5b8101908080359060200190929190505050610f10565b60405180806020018060200186815260200185815260200184151515158152602001838103835288818151815260200191508051906020019080838360005b838110156103d35780820151818401526020810190506103b8565b50505050905090810190601f1680156104005780820380516001836020036101000a031916815260200191505b50838103825287818151815260200191508051906020019080838360005b8381101561043957808201518184015260208101905061041e565b50505050905090810190601f1680156104665780820380516001836020036101000a031916815260200191505b5097505050505050505060405180910390f35b60006003600083815260200190815260200160002060050160006101000a81548160ff021916908315150217905550600060015460036000848152602001908152602001600020600201540290506000809054906101000a900473ffffffffffffffffffffffffffffffffffffffff1673ffffffffffffffffffffffffffffffffffffffff166108fc829081150290604051600060405180830381858888f1935050505015801561052e573d6000803e3d6000fd5b507f6497e6dff32a753fe6b3a2b3430e5f86d65c6e35cf360d52eb3494711d7d7a1c6000809054906101000a900473ffffffffffffffffffffffffffffffffffffffff168284604051808473ffffffffffffffffffffffffffffffffffffffff1673ffffffffffffffffffffffffffffffffffffffff168152602001838152602001828152602001935050505060405180910390a15050565b6000806003600084815260200190815260200160002060040160003373ffffffffffffffffffffffffffffffffffffffff1673ffffffffffffffffffffffffffffffffffffffff1681526020019081526020016000205411610691576040517f08c379a00000000000000000000000000000000000000000000000000000000081526004018080602001828103825260188152602001807f72657175657374657220686173206e6f207469636b657473000000000000000081525060200191505060405180910390fd5b60006003600084815260200190815260200160002060040160003373ffffffffffffffffffffffffffffffffffffffff1673ffffffffffffffffffffffffffffffffffffffff16815260200190815260200160002054905080915050919050565b60008060009054906101000a900473ffffffffffffffffffffffffffffffffffffffff1673ffffffffffffffffffffffffffffffffffffffff163373ffffffffffffffffffffffffffffffffffffffff16146107b6576040517f08c379a00000000000000000000000000000000000000000000000000000000081526004018080602001828103825260138152602001807f73656e646572206973206e6f74206f776e65720000000000000000000000000081525060200191505060405180910390fd5b6107be6110e1565b6040518060a00160405280868152602001858152602001848152602001600081526020016001151581525090506000600254905081600360008381526020019081526020016000206000820151816000019080519060200190610822929190611112565b50602082015181600101908051906020019061083f929190611112565b50604082015181600201556060820151816003015560808201518160050160006101000a81548160ff0219169083151502179055509050507f7d1d82c13762b51876068c852c5d404d0fa38fb615c14eebefafb60bdb4bd1b286868684604051808060200180602001858152602001848152602001838103835287818151815260200191508051906020019080838360005b838110156108ec5780820151818401526020810190506108d1565b50505050905090810190601f1680156109195780820380516001836020036101000a031916815260200191505b50838103825286818151815260200191508051906020019080838360005b83811015610952578082015181840152602081019050610937565b50505050905090810190601f16801561097f5780820380516001836020036101000a031916815260200191505b50965050505050505060405180910390a160026000815480929190600101919050555080925050509392505050565b6000600115156003600085815260200190815260200160002060050160009054906101000a900460ff16151514610a4d576040517f08c379a000000000000000000000000000000000000000000000000000000000815260040180806020018281038252600f8152602001807f6576656e7420697320636c6f736564000000000000000000000000000000000081525060200191505060405180910390fd5b6001548202341015610ac7576040517f08c379a00000000000000000000000000000000000000000000000000000000081526004018080602001828103825260208152602001807f76616c7565206e6f7420656e6f75676820666f72207472616e73616374696f6e81525060200191505060405180910390fd5b8160036000858152602001908152602001600020600301546003600086815260200190815260200160002060020154031015610b6b576040517f08c379a00000000000000000000000000000000000000000000000000000000081526004018080602001828103825260088152602001807f736f6c64206f757400000000000000000000000000000000000000000000000081525060200191505060405180910390fd5b816003600085815260200190815260200160002060040160003373ffffffffffffffffffffffffffffffffffffffff1673ffffffffffffffffffffffffffffffffffffffff1681526020019081526020016000206000828254019250508190555081600360008581526020019081526020016000206002016000828254039250508190555060008260015402340390506000811115610c4c573373ffffffffffffffffffffffffffffffffffffffff166108fc829081150290604051600060405180830381858888f19350505050158015610c4a573d6000803e3d6000fd5b505b7f15827fa78fedf80f93aa72ce61e705b1362cab60ae596b1bb327076fc3856c24338585604051808473ffffffffffffffffffffffffffffffffffffffff1673ffffffffffffffffffffffffffffffffffffffff168152602001838152602001828152602001935050505060405180910390a18291505092915050565b6000809054906101000a900473ffffffffffffffffffffffffffffffffffffffff1681565b60006003600083815260200190815260200160002060040160003373ffffffffffffffffffffffffffffffffffffffff1673ffffffffffffffffffffffffffffffffffffffff1681526020019081526020016000205411610db7576040517f08c379a00000000000000000000000000000000000000000000000000000000081526004018080602001828103825260188152602001807f72657175657374657220686173206e6f207469636b657473000000000000000081525060200191505060405180910390fd5b60006003600083815260200190815260200160002060040160003373ffffffffffffffffffffffffffffffffffffffff1673ffffffffffffffffffffffffffffffffffffffff16815260200190815260200160002054905060006003600084815260200190815260200160002060020154905081810160036000858152602001908152602001600020600201819055506000826001540290503373ffffffffffffffffffffffffffffffffffffffff166108fc829081150290604051600060405180830381858888f19350505050158015610e96573d6000803e3d6000fd5b507f73ebb2050cb3ee6869929e7a26925e92e201f14902e155037f1f90af931b3233338585604051808473ffffffffffffffffffffffffffffffffffffffff1673ffffffffffffffffffffffffffffffffffffffff168152602001838152602001828152602001935050505060405180910390a150505050565b606080600080600060036000878152602001908152602001600020600001600360008881526020019081526020016000206001016003600089815260200190815260200160002060020154600360008a815260200190815260200160002060030154600360008b815260200190815260200160002060050160009054906101000a900460ff16848054600181600116156101000203166002900480601f01602080910402602001604051908101604052809291908181526020018280546001816001161561010002031660029004801561102b5780601f106110005761010080835404028352916020019161102b565b820191906000526020600020905b81548152906001019060200180831161100e57829003601f168201915b50505050509450838054600181600116156101000203166002900480601f0160208091040260200160405190810160405280929190818152602001828054600181600116156101000203166002900480156110c75780601f1061109c576101008083540402835291602001916110c7565b820191906000526020600020905b8154815290600101906020018083116110aa57829003601f168201915b505050505093509450945094509450945091939590929450565b6040518060a00160405280606081526020016060815260200160008152602001600081526020016000151581525090565b828054600181600116156101000203166002900490600052602060002090601f016020900481019282601f1061115357805160ff1916838001178555611181565b82800160010185558215611181579182015b82811115611180578251825591602001919060010190611165565b5b50905061118e9190611192565b5090565b6111b491905b808211156111b0576000816000905550600101611198565b5090565b9056fea165627a7a72305820438597c4e0f94e9e85d205c6e9fe46fa7461d08990161ed181788567e6411f7c0029",
  "source": "pragma solidity ^0.5.0;\n\n    /*\n        The EventTicketsV2 contract keeps track of the details and ticket sales of multiple events.\n     */\ncontract EventTicketsV2 {\n    address payable public owner;\n\n    /*\n        Define an public owner variable. Set it to the creator of the contract when it is initialized.\n    */\n    uint PRICE_TICKET = 100 wei;\n\n    /*\n        Create a variable to keep track of the event ID numbers.\n    */\n    uint private idGenerator;\n\n    /*\n        Define an Event struct, similar to the V1 of this contract.\n        The struct has 6 fields: description, website (URL), totalTickets, sales, buyers, and isOpen.\n        Choose the appropriate variable type for each field.\n        The \"buyers\" field should keep track of addresses and how many tickets each buyer purchases.\n    */\n    struct Event {\n        string description;\n        string website;\n        uint totalTickets;\n        uint sales;\n        mapping (address => uint) buyers;\n        bool isOpen;\n    }\n\n    /*\n        Create a mapping to keep track of the events.\n        The mapping key is an uinteger, the value is an Event struct.\n        Call the mapping \"events\".\n    */\n    mapping(uint => Event) events;\n\n    event LogEventAdded(string desc, string url, uint ticketsAvailable, uint eventId);\n    event LogBuyTickets(address buyer, uint eventId, uint numTickets);\n    event LogGetRefund(address accountRefunded, uint eventId, uint numTickets);\n    event LogEndSale(address owner, uint balance, uint eventId);\n    event LogReadEvent(string description, string website, uint totalTickets, uint sales, bool isOpen);\n\n    constructor() public {\n        owner = msg.sender;\n        idGenerator = 0;\n    }\n\n    /*\n        Create a modifier that throws an error if the msg.sender is not the owner.\n    */\n    modifier isOwner() {\n        require(msg.sender == owner, 'sender is not owner');\n        _;\n    }\n\n    /*\n        Define a function called addEvent().\n        This function takes 3 parameters, an event description, a URL, and a number of tickets.\n        Only the contract owner should be able to call this function.\n        In the function:\n            - Set the description, URL and ticket number in a new event.\n            - set the event to open\n            - set an event ID\n            - increment the ID\n            - emit the appropriate event\n            - return the event's ID\n    */\n    function addEvent(string memory _description, string memory _url, uint _ticketNumber)\n        public isOwner\n        returns(uint)\n    {\n        Event memory newEvent = Event({description: _description, website: _url, totalTickets: _ticketNumber, isOpen: true, sales: 0});\n        uint newId = idGenerator;\n        events[newId] = newEvent;\n\n        emit LogEventAdded(_description, _url, _ticketNumber, newId);\n\n        idGenerator++;\n        return newId;\n    }\n\n    /*\n        Define a function called readEvent().\n        This function takes one parameter, the event ID.\n        The function returns information about the event this order:\n            1. description\n            2. URL\n            3. tickets available\n            4. sales\n            5. isOpen\n    */\n    function readEvent(uint _eventId)\n        public view\n        returns(string memory description, string memory website, uint totalTickets, uint sales, bool isOpen)\n    {\n        return (\n            events[_eventId].description,\n            events[_eventId].website,\n            events[_eventId].totalTickets,\n            events[_eventId].sales,\n            events[_eventId].isOpen\n        );\n    }\n\n    /*\n        Define a function called buyTickets().\n        This function allows users to buy tickets for a specific event.\n        This function takes 2 parameters, an event ID and a number of tickets.\n        The function checks:\n            - that the event sales are open\n            - that the transaction value is sufficient to purchase the number of tickets\n            - that there are enough tickets available to complete the purchase\n        The function:\n            - increments the purchasers ticket count\n            - increments the ticket sale count\n            - refunds any surplus value sent\n            - emits the appropriate event\n    */\n    // modifier eventIsOpened(uint _eventId) {\n    //     require(events[_eventId].isOpen, 'event is closed');\n    //     _;\n    // }\n\n    // modifier eventIsNotSoldOut(uint _eventId) {\n    //     require(events[_eventId].totalTickets > 0, 'sold out');\n    //     _;\n    // }\n\n    // modifier enoughValue(uint _numberOfTickets) {\n    //     require((PRICE_TICKET * _numberOfTickets) <= msg.value, 'value not enough for transaction');\n    //     _;\n    // }\n\n    function buyTickets(uint _eventId, uint _numberOfTickets)\n        public\n        payable\n        returns(uint)\n    {\n        require(events[_eventId].isOpen == true, 'event is closed');\n        require(msg.value >= _numberOfTickets * PRICE_TICKET, 'value not enough for transaction');\n        require(events[_eventId].totalTickets - events[_eventId].sales >= _numberOfTickets, 'sold out');\n\n        events[_eventId].buyers[msg.sender] += _numberOfTickets;\n        events[_eventId].totalTickets -= _numberOfTickets;\n\n        uint _amountToRefund = msg.value - (PRICE_TICKET * _numberOfTickets);\n        if (_amountToRefund > 0) {\n            address(msg.sender).transfer(_amountToRefund);\n        }\n\n        emit LogBuyTickets(msg.sender, _eventId, _numberOfTickets);\n\n        return _numberOfTickets;\n    }\n\n    /*\n        Define a function called getRefund().\n        This function allows users to request a refund for a specific event.\n        This function takes one parameter, the event ID.\n        TODO:\n            - check that a user has purchased tickets for the event\n            - remove refunded tickets from the sold count\n            - send appropriate value to the refund requester\n            - emit the appropriate event\n    */\n    function getRefund(uint _eventId) public payable {\n        require(events[_eventId].buyers[msg.sender] > 0, 'requester has no tickets');\n\n        uint _amountToRefund = events[_eventId].buyers[msg.sender];\n\n        uint _initialTotalTickets = events[_eventId].totalTickets;\n        events[_eventId].totalTickets = _initialTotalTickets + _amountToRefund;\n\n        uint _valueToRefund = PRICE_TICKET * _amountToRefund;\n        msg.sender.transfer(_valueToRefund);\n\n        emit LogGetRefund(msg.sender, _eventId, _amountToRefund);\n    }\n\n    /*\n        Define a function called getBuyerNumberTickets()\n        This function takes one parameter, an event ID\n        This function returns a uint, the number of tickets that the msg.sender has purchased.\n    */\n    function getBuyerNumberTickets(uint _eventId) public view returns(uint) {\n        require(events[_eventId].buyers[msg.sender] > 0, 'requester has no tickets');\n\n        uint _amountBought = events[_eventId].buyers[msg.sender];\n\n        return _amountBought;\n    }\n\n    /*\n        Define a function called endSale()\n        This function takes one parameter, the event ID\n        Only the contract owner can call this function\n        TODO:\n            - close event sales\n            - transfer the balance from those event sales to the contract owner\n            - emit the appropriate event\n    */\n    function endSale(uint _eventId) public payable {\n        events[_eventId].isOpen = false;\n        uint balance = events[_eventId].totalTickets * PRICE_TICKET;\n        owner.transfer(balance);\n        emit LogEndSale(owner, balance, _eventId);\n    }\n}\n",
  "sourcePath": "/Users/fran/ws/block/exercises/event-tickets-exercise-farantesrodrigues/contracts/EventTicketsV2.sol",
  "compiler": {
    "name": "solc",
    "version": "0.5.8+commit.23d335f2.Emscripten.clang"
  },
  "schemaVersion": "3.0.11",
  "updatedAt": "2019-07-29T16:37:58.796Z",
  "devdoc": {
    "methods": {}
  },
  "userdoc": {
    "methods": {}
  }
}